:020000040800F2
:100000003807002035040008390200083B020008C8
:100010003F020008430200084702000800000000F9
:100020000000000000000000000000004B0200087B
:100030004D020008000000004F02000851020008B5
:100040004F0400084F0400084F0400084F04000844
:100050004F0400084F0400084F0400084F04000834
:100060004F0400084F0400084F0400084F04000824
:100070004F0400084F0400084F0400084F04000814
:100080004F0400084F0400084F0400084F04000804
:100090004F0400084F0400084F0400084F040008F4
:1000A0004F0400084F0400084F0400084F040008E4
:1000B0004F0400084F0400084F0400084F040008D4
:1000C0004F0400084F0400084F0400084F040008C4
:1000D0004F040008391300084F0400084F040008BB
:1000E0004F0400084F0400084F0400084F040008A4
:1000F0004F0400084F0400084F0400084F04000894
:100100004F0400084F0400084F0400084F04000883
:100110004F0400084F0400084F0400084F04000873
:100120004F0400084F0400084F0400084F04000863
:10013000DFF80CD002F050FB00480047BD0100087A
:100140003807002010B54FF4A06000F085F900F0EA
:100150008BFF00F073FF4FF4E13000F0EFFF01F090
:10016000E0FE01F066FA02E0C82000F0BAFF02F0FB
:1001700016F80028F8D128A12C4801F0B9F800227F
:100180000421104601F050FB01220421102001F04F
:100190004BFB02220421202001F046FB0322042114
:1001A000302001F041FB04221146402001F03CFBCD
:1001B00005220421502001F037FB10BD08B50124B1
:1001C000FFF7C0FF27E0FE2094FBF0F100FB114099
:1001D000E0B91749174801F0B6FF1648007802F059
:1001E00029F9054603202A460B46002100900120EC
:1001F00001F086FB0E48007802F01CF9054603204A
:100200002A460B460021009001F07AFB601CC4B224
:10021000FF2C00D10024D6E7204861726477617218
:100220006520696E6974204F4B0D0A00003801404B
:100230002D0000202C000020704700BFFEE700BF0B
:10024000FEE700BFFEE700BFFEE77047704770475C
:10025000704700000CB50020019000906C480068C9
:1002600040F480306A49086000BF6948006800F4C3
:10027000003000900198401C0190009818B9019836
:10028000B0F5A06FF1D16248006800F4003010B101
:100290000120009001E0002000900098012843D147
:1002A0005C48006840F010005A4908600846006841
:1002B00020F0030008600846006840F00200086073
:1002C00053484068524948600846406848600846BC
:1002D000406840F4806048600846406820F47C1024
:1002E00048600846406840F4E810486008460068E6
:1002F00040F08070086000BF4548006800F0007062
:100300000028F9D04248406820F003004049486086
:100310000846406840F00200486000BF3C48406822
:1003200000F00C000828F9D10CBD10B5FFF792FFC2
:1003300010BD10B53648006840F00100344908602F
:10034000084640683449084031494860084600681A
:10035000324908402E4908600846006820F4802091
:1003600008600846406820F4FE0048604FF41F0013
:100370008860FFF7DAFF4FF000602949086010BD80
:1003800010B5002100200022214B5B6803F00C0116
:1003900021B1042906D0082928D107E0214B224C9D
:1003A000236027E01F4B204C236023E0184B5B6841
:1003B00003F47010164B5B6803F48032022303EBE6
:1003C000904022B9194B4343174C23600DE0104B6A
:1003D0005B6803F4003323B1144B4343124C236096
:1003E00003E0104B4343104C236003E00D4B0E4CD5
:1003F000236000BF00BF064B5B68C3F303130C4CC4
:10040000E15C094B1B68CB40074C236010BD00002A
:1004100000100240002002400000FFF8FFFFF6FE3F
:1004200008ED00E000127A000000002000093D0005
:10043000040000200648804706480047FEE7FEE724
:10044000FEE7FEE7FEE7FEE7FEE7FEE7FEE7FEE784
:10045000330300083101000831490143314A11607A
:10046000704770B5002100230F22C47804B32D4CCF
:10047000246804F4E064C4F5E064210AC1F10403D3
:10048000CA40447804FA03F18478144021430901F6
:10049000254C0678A155047804F01F050124AC40D2
:1004A00005786D11AD0005F1E025C5F8004109E0C2
:1004B000047804F01F050124AC401C4D0678761129
:1004C00045F8264070BD1A4A0A400243154B1B1FCF
:1004D0001A60704739B1134A121D12680243114B5A
:1004E0001B1D1A6006E00F4A121D126882430D4B55
:1004F0001B1D1A607047042808D14FF0E0210969DC
:1005000041F004014FF0E022116107E04FF0E021DB
:10051000096921F004014FF0E022116170470000E9
:100520000000FA050CED00E000E400E080E100E0EE
:1005300080FFFF1F10B50446CC48844208D101213A
:10054000042000F02DFB0021042000F029FB46E0F0
:10055000C748844208D10121082000F021FB002176
:10056000082000F01DFB3AE0C248844208D1012176
:10057000102000F015FB0021102000F011FB2EE0F0
:10058000BD48844208D10121202000F009FB002150
:10059000202000F005FB22E0B848844208D1012168
:1005A000402000F0FDFA0021402000F0F9FA16E0AA
:1005B000B348844208D10121802000F0F1FA0021E3
:1005C000802000F0EDFA0AE0AE48844207D1012114
:1005D000801500F0E5FA0021A01500F0E1FA10BD49
:1005E00010B50121084600F0DBFA0021012000F0DF
:1005F000D7FA10BD2DE9F041024600250026002063
:1006000000230024002791F803C00CF00F0591F897
:1006100003C00CF0100CBCF1000F03D091F802C025
:100620004CEA050591F800C0BCF1000F31D0146808
:1006300000202BE04FF0010C0CFA00F3B1F800C0E1
:100640000CEA03069E4220D183004FF00F0C0CFAF7
:1006500003F7BC4305FA03FC4CEA040491F803C019
:10066000BCF1280F06D14FF0010C0CFA00FCC2F8C7
:1006700014C00AE091F803C0BCF1480F05D14FF057
:10068000010C0CFA00FCC2F810C0401C0828D1D3A1
:100690001460B1F800C0BCF1FF0F34DD54680020D5
:1006A0002EE000F1080C4FF0010808FA0CF3B1F845
:1006B00000C00CEA03069E4221D183004FF00F0CCC
:1006C0000CFA03F7BC4305FA03FC4CEA040491F866
:1006D00003C0BCF1280F05D100F1080C08FA0CF892
:1006E000C2F8148091F803C0BCF1480F07D100F1A3
:1006F000080C4FF0010808FA0CF8C2F81080401CF2
:100700000828CED35460BDE8F0814FF6FF71018018
:10071000022181700421C170704702460020936855
:100720000B400BB1012000E00020704701468868B3
:1007300080B2704702460020D3680B400BB1012005
:1007400000E0002070470146C86880B27047016130
:100750007047416170470AB1016100E04161704733
:10076000C16070474FF480320A43826181618261C7
:1007700082698269704702460020434B18684FF631
:100780008073184040EA021008433F4B18607047DE
:100790003E49C8617047F0B50A4600230024002195
:1007A000002500F00046B6F1004F02D1364EF16947
:1007B00001E0354E7168C0F3034583B200F4401682
:1007C000B6F5401F08D121F070612F4E766826F0F3
:1007D00070662D4F7E6012E000F48016B6F5801F23
:1007E00006D1032606FA05F4A14341F0706106E044
:1007F000460D360103FA06F6B14341F0706122B1AD
:10080000460D360103FA06F6314300F00046B6F114
:10081000004F02D11C4EF16101E01B4E7160F0BD32
:1008200030B500228B071C0F0F2303FA04F2164B7E
:1008300008338C1053F824309343134C08348D1034
:1008400044F8253023468C1053F824308C07240FAD
:1008500000FA04F423430C4C08348D1044F825307E
:1008600030BD0A49DC3108607047000000080140D3
:10087000000C01400010014000140140001801402C
:10088000001C014000200140000001400000204207
:10089000DF48006840F00100DD4908600846406814
:1008A000DC490840DA49486008460068DA490840EF
:1008B000D74908600846006820F480200860084690
:1008C000406820F4FE0048604FF41F0088607047C5
:1008D000CF49096821F48031CD4A11601146096879
:1008E00021F480211160B0F5803F03D0B0F5802F56
:1008F0000ED106E0C649096841F48031C44A11604E
:1009000007E0C349096841F4A021C14A116000E031
:1009100000BF00BF704710B5014600220023002031
:100920004A11012A02D1BA4C236806E0022A02D1F8
:10093000B74C236A01E0B64C636A01F01F02012440
:1009400094401C400CB1012000E0002010BD38B5DF
:10095000002000900024002500BF3120FFF7DBFFBE
:1009600005460098401C00900098B0F5A06F01D09B
:10097000002DF2D03120FFF7CEFF08B1012400E0B6
:100980000024204638BD01460020A14A106820F00E
:10099000F80040EAC10010607047A0490860704745
:1009A000024600209A4B586820F47C1042EA01036A
:1009B0001843974B5860704798490866704701463E
:1009C0000020934A506820F00300084350607047AD
:1009D0008F48406800F00C007047014600208C4AA8
:1009E000506820F0F0000843506070470146002036
:1009F000874A506820F4E060084350607047014621
:100A00000020834A506820F4605040EAC1005060E2
:100A1000704729B17E4A527A02437D4B5A7204E0F4
:100A20007B4A527A82437A4B5A7270477B49D8315B
:100A30000860704701460020754A506820F4404025
:100A40000843506070470021714A20321170704A8B
:100A500082F82010012802D004280AD104E00121E4
:100A60006B4A2032117005E00521694A203211706D
:100A700000E000BF00BF70476949086070476449E3
:100A8000096A0143624A1162704765494439086046
:100A9000704730B500210022002400235C4D6D68B2
:100AA00005F00C0121B1042905D0082923D105E066
:100AB0005C4D056022E05B4D05601FE0544D6D68A4
:100AC00005F47012524D6D6805F48034022505EB73
:100AD00092421CB9544D554305600BE04C4D6D6876
:100AE00005F400351DB1504D5543056002E04D4DF4
:100AF0005543056002E04B4D056000BF00BF444D0B
:100B00006D6805F0F0010909484D6B5C0568DD4032
:100B100045603F4D6D6805F4E061090A434D6B5C2B
:100B20004568DD4085603A4D6D6805F46051C90A3D
:100B30003E4D6B5C4568DD40C560354D6D6805F424
:100B40004041890B3A4D6B5CC568B5FBF3F5056117
:100B500030BD29B12E4A526902432D4B5A6104E03F
:100B60002B4A526982432A4B5A61704729B1284A5D
:100B700092690243264B9A6104E0254A92698243B6
:100B8000234B9A61704729B1214AD2690243204B15
:100B9000DA6104E01E4AD26982431D4BDA61704774
:100BA00029B11B4AD2680243194BDA6004E0184AA3
:100BB000D2688243164BDA60704729B1144A126931
:100BC0000243134B1A6104E0114A12698243104B2D
:100BD0001A61704712494039086070470F49C8646C
:100BE00070470B49C87170470948406A40F08070EF
:100BF00007494862704701460020054A92680A404A
:100C00000AB1012000E00020704701498872704756
:100C1000001002400000FFF8FFFFF6FE0000424215
:100C20008004424200127A0000093D0014000020B6
:100C30002400002010B50446FB48844209D101215C
:100C40008803FFF7ADFF00214FF48040FFF7A8FFB6
:100C500032E0F648844209D101214804FFF7ADFF94
:100C600000214FF40030FFF7A8FF25E0F048844250
:100C700009D101218804FFF7A0FF00214FF4802053
:100C8000FFF79BFF18E0EB48844209D10121C8041B
:100C9000FFF793FF00214FF40020FFF78EFF0BE0DA
:100CA000E548844208D101210805FFF786FF0021AD
:100CB0004FF48010FFF781FF10BD2DE9F04786B09B
:100CC00005460E460024A24600BFA1460027B08973
:100CD00000B100BF2F462C8A4CF6FF700440F0880C
:100CE00004432C82AC894EF6F3100440B08831895D
:100CF0000843718908430443AC81AC8A4FF6FF4036
:100D00000440B0890443AC8201A8FFF7C2FEC64884
:100D1000874202D1DDF810A001E0DDF80CA0A8891F
:100D200000F4004040B10AEBCA0000EB0A10316841
:100D30004900B0FBF1F807E00AEBCA0000EB0A102B
:100D400031688900B0FBF1F86420B8FBF0F00401D1
:100D50002009642101FB1089A88900F4004040B1FA
:100D6000322000EBC900B0FBF1F000F007000443B3
:100D700008E0322000EB09106421B0FBF1F000F034
:100D80000F0004432C8106B0BDE8F0874FF41651E4
:100D9000016000218180C18001810C2141810021FD
:100DA0008181704710B502460020108A4FF2FF0380
:100DB00018400B884C8823438C882343CC882343DA
:100DC0001843108210BD0021018041808180C180C4
:100DD000704721B1828942F40052828104E0828905
:100DE0004DF6FF731A4082817047F0B50346002428
:100DF00000260025002040F66A17B94200D100BF46
:100E00001846C1F3421401F01F06012707FA06F540
:100E1000012C01D10C3004E0022C01D1103000E093
:100E200014301AB107682F43076002E00768AF4328
:100E30000760F0BD1AB1838A0B43838202E0838A84
:100E40008B4383827047028A4FF6F0731A40028206
:100E5000028A0A430282704782894FF2FF731A4066
:100E6000828182890A438281704721B1828942F05E
:100E70000202828104E082894FF6FD731A4082816A
:100E80007047028A4FF6DF731A400282028A0A43D1
:100E90000282704721B1028A42F48042028204E059
:100EA000028A4BF6FF731A4002827047C1F30802B0
:100EB0008280704701468888C0F3080070478189A6
:100EC00041F0010181817047028BD2B20283028B13
:100ED00042EA012202837047028B02F47F420283BE
:100EE000028B0A430283704721B1828A42F02002BA
:100EF000828204E0828A4FF6DF731A408282704752
:100F000021B1828A42F01002828204E0828A4FF686
:100F1000EF731A408282704721B1828A42F0080240
:100F2000828204E0828A4FF6F7731A408282704709
:100F300021B1828942F40042828103E08289C2F3B6
:100F40000E028281704721B1828A42F4006282825D
:100F500004E0828A4FF2FF731A4082827047828ACD
:100F60004FF6FB731A408282828A0A43828270475C
:100F700021B1828A42F00202828204E0828A4FF624
:100F8000FD731A408282704702460020B1F5007F4F
:100F900000D100BF13880B400BB1012000E00020FE
:100FA000704701F40072B2F5007F00D100BFCA4360
:100FB0000280704770B502460024002300250020FF
:100FC00040F66A16B14200D100BFC1F3421501F0EC
:100FD0001F03012606FA03F3012D02D1968933403F
:100FE00006E0022D02D1168A334001E0968A334092
:100FF0000C12012606FA04F41688344013B10CB121
:10100000012000E0002070BD10B50022002340F652
:101010006A14A14200D100BF0A1201249440A3B275
:10102000DC43048010BD0000003801400044004053
:1010300000480040004C00400050004008B501212D
:101040000820FFF793FD4FF48070ADF800001020EA
:101050008DF8030003208DF8020069460148FFF770
:10106000C9FA08BD000C014010B56FF00400FFF78D
:1010700042FA2E4800682E49B0FBF1F02D49087065
:101080000846007800EB4001C1EBC0104FF6FF713D
:1010900001EAC0002849088010BD0146254A12789F
:1010A0004A434FF0E0235A6100229A611A461269BE
:1010B00042F001021A6100BF4FF0E022106900F017
:1010C00001021AB100F48032002AF5D04FF0E0227C
:1010D000126922F001024FF0E0231A6100229A61A6
:1010E00070470146144A12884A434FF0E0235A6180
:1010F00000229A611A46126942F001021A6100BF89
:101100004FF0E022106900F001021AB100F48032C1
:10111000002AF5D04FF0E022126922F001024FF0D0
:10112000E0231A6100229A6170470000000000204D
:1011300000127A00280000202A00002010B586B096
:10114000044601210420FFF711FD01218803FFF768
:101150000DFD18208DF817004FF40070ADF8140045
:1011600003208DF8160005A9A148FFF743FA0420D3
:101170008DF817000002ADF8140003208DF816005A
:1011800005A99B48FFF736FA01940020ADF810003E
:101190000C20ADF80E000020ADF80C00ADF80A00F0
:1011A000ADF8080001A99348FFF787FD0121914898
:1011B000FFF70FFE012240F225518E48FFF715FE82
:1011C00025208DF8000001208DF8030000208DF807
:1011D000010002208DF802006846FFF742F906B0D0
:1011E00010BD10B586B0044601210420FFF7BEFCF7
:1011F00001214804FFF7C7FC18208DF817000420D0
:10120000ADF8140003208DF8160005A97848FFF703
:10121000F1F904208DF817000820ADF81400032020
:101220008DF8160005A97248FFF7E4F90194002033
:10123000ADF810000C20ADF80E000020ADF80C0049
:10124000ADF80A00ADF8080001A96B48FFF735FDBD
:1012500001216948FFF7BDFD012240F22551664892
:10126000FFF7C3FD26208DF8000001208DF8030054
:1012700000208DF801008DF802006846FFF7F1F8B4
:1012800006B010BD2DE9F04107460C461546002674
:101290000DE014F8011B3846FFF708FE00BF40219F
:1012A0003846FFF771FE0028F9D0701C86B2AE42B6
:1012B000EFDBBDE8F08170B506460C460025402105
:1012C0003046FFF76EFE0FE0615D3046FFF7EEFD42
:1012D00000BF40213046FFF757FE0028F9D04021DB
:1012E0003046FFF75EFE6D1C605D0028ECD170BDDE
:1012F0000FB430B5CBB0054601AC50A800904FF408
:10130000947101A8009B4F9A01F0A4FA002000906C
:101310000BE014F8011B2846FFF7C8FD00BF402171
:101320002846FFF731FE0028F9D020780028F0D1B8
:101330004BB030BC5DF814FB10B540F225512D4880
:10134000FFF738FE002851D02A48FFF7B3FDC4B29A
:10135000312C02D1002029490860322C02D1012011
:1013600026490860332C08D1C820FFF7BAFE24486C
:10137000027824A11F48FFF7BBFF342C05D1264873
:10138000027826A11B48FFF7B3FF2848008800F425
:10139000004058BB2548008800F4804060B10A2C0A
:1013A00003D000202149088020E02048008840F434
:1013B00000401E49088019E00D2C06D11B4800880A
:1013C00040F480401949088010E018480088C0F3B4
:1013D0000D0017490C5415480088401C134908801B
:1013E00008460088C72801DD0020088010BD0000E5
:1013F000000801400038014000440040A081214223
:101400002C00002074656D70657261747572653AA8
:1014100025640D0A000000002D00002068756D692C
:10142000646974793A25640D0A0000002E000020DA
:101430007002002010B54FF40051F848FFF787F90B
:101440004FF40041F548FFF782F94FF40041F348AB
:10145000FFF77FF94FF40051F048FFF77AF910BD1C
:1014600010B54FF40051ED48FFF771F94FF400410A
:10147000EA48FFF76EF94FF40041E848FFF767F9D3
:1014800010BD10B54FF40051E448FFF760F94FF478
:101490000051E248FFF75DF910BD2DE9F041054626
:1014A0002C464FF40051DD48FFF753F900261CE0AD
:1014B000274607F08007802F04D13902D748FFF76D
:1014C00046F904E04FF40041D448FFF742F96006C2
:1014D000040E4FF40051D148FFF739F94FF4005191
:1014E000CE48FFF736F9701CC6B2082EE0DBBDE827
:1014F000F08110B50446FFF79DFF7820FFF7CDFF80
:10150000FFF7BFFF0020FFF7C8FFFFF7BAFF204635
:10151000FFF7C3FFFFF7B5FFFFF7A2FF10BD10B540
:101520000446FFF787FF7820FFF7B7FFFFF7A9FF13
:101530004020FFF7B2FFFFF7A4FF2046FFF7ADFF03
:10154000FFF79FFFFFF78CFF10BD70B504460D46F7
:101550001DB1E0B2FFF7E3FF02E0E0B2FFF7C9FF21
:1015600070BD70B50646002418E004F1B0000021FB
:10157000FFF7EBFF00210846FFF7E7FF00211020EF
:10158000FFF7E3FF002505E001213046FFF7DDFF0F
:10159000681CC5B2802DF7DB601CC4B2082CE4DBEC
:1015A00070BD06E041F6650100E0491E0029FCD14E
:1015B000401E0028F6D17047014605E0002001E0FA
:1015C000421CD0B27B28FBDB0A1EA1F10101F5D140
:1015D000704770B504460D4605F1B0000021FFF7D5
:1015E000B4FF102141EA14100021FFF7AEFF04F010
:1015F0000F000021FFF7A9FF70BD10B500218D205D
:10160000FFF7A3FF00211420FFF79FFF0021AF2069
:10161000FFF79BFF10BD10B500218D20FFF795FF50
:1016200000211020FFF791FF0021AE20FFF78DFF72
:1016300010BD70B5002418E004F1B0000021FFF7E0
:1016400084FF00210846FFF780FF00211020FFF7EC
:101650007CFF002505E001210020FFF776FF681CD4
:10166000C5B2802DF7DB601CC4B2082CE4DB70BD72
:1016700070B5002418E004F1B0000021FFF765FF09
:1016800000210846FFF761FF00211020FFF75DFFF2
:10169000002505E001210846FFF757FF681CC5B289
:1016A000802DF7DB601CC4B2082CE4DB70BD2DE993
:1016B000F04707460E469046994600250024A8F1BB
:1016C0002000C5B27F2F02DD0027B01CC6B2B9F1E1
:1016D000100F24D131463846FFF77BFF002408E085
:1016E00004EB05114E4A505C0121FFF72EFF601CF0
:1016F000C4B2082CF4DB701CC1B23846FFF769FF96
:10170000002409E004EB05110831454A505C012131
:10171000FFF71BFF601CC4B2082CF3DB12E031465C
:101720003846FFF756FF00240AE005EB45013D4A25
:1017300002EB4101085D0121FFF707FF601CC4B205
:10174000062CF2DBBDE8F08710B50246012000E070
:1017500050430B1EA1F10104E1B2F9D110BD2DE9F6
:10176000FF5F074691461E460E9D4FF0000A00247B
:1017700035E0301B401EC1B20A20FFF7E5FFB9FB80
:10178000F0F00A21B0FBF1F201FB1208BAF1000FF0
:1017900014D1701EA04211DDB8F1000F0CD1AB4680
:1017A00005EBDB71491001FB0471C8B22B46202206
:1017B0000199FFF77CFF10E04FF0010AAB4605EB03
:1017C000DB71491001FB0471C8B208F13001CAB2E3
:1017D0002B460199FFF76BFF00BF601CC4B2B442F7
:1017E000C7DBBDE8FF9F2DE9F04105460E461446D4
:1017F0001F460EE022783B4631462846FFF757FF4A
:1018000005F10800C5B2782D02DD0025B01CC6B276
:10181000641C20780028EDD1BDE8F081000C014067
:1018200090330008683100082DE9F04180460E46EB
:101830001546002731464046FFF7CBFE00240AE05C
:10184000F74A02EB8511085D0121FFF77EFE781C47
:10185000C7B2601CC4B2102CF2DB701CC1B240468F
:10186000FFF7B7FE00240CE06900491CEC4A02EBCC
:101870004111085D0121FFF768FE781CC7B2601CAA
:10188000C4B2102CF0DBBDE8F0812DE9F05F064614
:101890000F4690461C46DDF828A04FF0000BE117DC
:1018A00004EB5171C910A4EBC10131B92046E11715
:1018B00004EB5171C1F3C70506E02046E11704EBC4
:1018C0005171C910491CCDB23D4615E0294630463C
:1018D000FFF77FFEB1460BE059460BF1010B1AF8FA
:1018E00001000121FFF731FE09F1010000F0FF09BD
:1018F000C145F1DB681CC5B2A542E7DBBDE8F09F3E
:101900002DE9FF5F86B014461D464FF0010A002006
:101910000390049005904FF00109002600BF834614
:10192000002213462046294600F0CAFD09D285F060
:101930000040CDE900402046019900F088FD0646B0
:1019400004E02046294600F082FD0646304600F0BD
:1019500060FD22462B46CDE9000100F0E5FC07467C
:1019600088460022AF4B3846414600F0E0FCCDE906
:10197000000100F08BFD834607E009EB89004FEA88
:1019800040090AF1010000F0FF0A0A2096FBF0F07E
:1019900090FBF9F00028F0D142F2107096FBF0F0C5
:1019A0000A2190FBF1F201FB1200C0B28DF80C008D
:1019B0004FF47A7096FBF0F090FBF1F201FB12000D
:1019C000C0B28DF80D00642096FBF0F090FBF1F2B0
:1019D00001FB1200C0B28DF80E000A2096FBF0F059
:1019E00090FBF1F201FB1200C0B28DF80F000A204B
:1019F00096FBF0F100FB1160C0B28DF810002E20B4
:101A00008DF811004FF47A70BBFBF0F00A21B0FBA7
:101A1000F1F201FB12008DF812006420BBFBF0F024
:101A2000B0FBF1F201FB12008DF813000A20BBFBA2
:101A3000F0F0B0FBF1F201FB12008DF814000A2067
:101A4000BBFBF0F100FB11B08DF8150000211498DC
:101A5000801D03AA1154894608E003A810F8090064
:101A6000303003A901F8090009F10109B9F10A0FA1
:101A7000F3DB002213462046294600F021FD08D260
:101A80000AF1010000F0FF0A2D20CAF1050103AAA6
:101A900050542E208DF8110000211498801D03AAA7
:101AA0001154CAF1050003A942180C23DDE9061000
:101AB000FFF799FE0AB0BDE8F09F2DE9F04F89B01D
:101AC0008246894617469846DDF84CB001200790BB
:101AD00000200490059006900124002500BF0026F8
:101AE0004FEAC9604FEA10693846414600F0AFFC42
:101AF0000546284600F09EFC3A464346CDE90001E3
:101B000000F012FCCDE902010022464BDDE90201A2
:101B100000F00DFCCDE9000100F0B8FC064606E03F
:101B200004EB840044000798401CC0B207900A20D0
:101B3000B5FBF0F0B0FBF4F00028F1D142F21070E8
:101B4000B5FBF0F00A21B0FBF1F201FB12008DF8B9
:101B500010004FF47A70B5FBF0F0B0FBF1F201FB2E
:101B600012008DF811006420B5FBF0F0B0FBF1F22B
:101B700001FB12008DF812000A20B5FBF0F0B0FB5B
:101B8000F1F201FB12008DF813002E208DF81500E4
:101B90004FF47A70B6FBF0F0B0FBF1F201FB1200EB
:101BA0008DF816006420B6FBF0F0B0FBF1F201FBFB
:101BB00012008DF817000A20B6FBF0F0B0FBF1F22E
:101BC00001FB12008DF818000A20B6FBF0F100FBB3
:101BD00011608DF8190000210BF1060004AA1154C0
:101BE000002405E004A8005D303004A90855641CF9
:101BF0000A2CF7DB2E208DF8150000210BF10600D2
:101C000004AA11541298C0F1050004A942180C232B
:101C100051464846FFF7E7FD09B0BDE8F08F0000E8
:101C2000300000200088C3402DE9F04105460F46F2
:101C3000164600BF05EB45014906080E3946FFF779
:101C4000C8FC00240BE006F1100101EB4101FB4A46
:101C500002EB4101085D0121FFF777FC641C062CB3
:101C6000F1DBBDE8F0812DE9F04105460F4616464F
:101C700000BF05EB45014906080E3946FFF7A9FCF0
:101C8000002409E006EB4601EC4A02EB4101085D45
:101C90000121FFF75AFC641C062CF3DBBDE8F08140
:101CA0002DE9F0470546894616463446002C22DACF
:101CB0006442642094FBF0F100FB11400A2190FB88
:101CC000F1F0C7B20A2094FBF0F100FB114000F0E4
:101CD000FF080D2249462846FFF7C5FF691CC8B218
:101CE0003A464946FFF7A0FFA91CC8B242464946FA
:101CF000FFF79AFF20E0642094FBF0F100FB114015
:101D00000A2190FBF1F0C7B20A2094FBF0F100FB2E
:101D1000114000F0FF080B2249462846FFF7A3FFB9
:101D2000691CC8B23A464946FFF77EFFA91CC8B2F3
:101D300042464946FFF778FFBDE8F0872DE9F047B6
:101D400005468A4616463446002C2DDA64420D229A
:101D500051462846FFF787FF0A2094FBF0F100FB6D
:101D60001140C7B20A2094FBF0F00A2190FBF1F277
:101D700001FB120000F0FF08642094FBF0F000F07B
:101D8000FF09E91CC8B23A465146FFF74DFFA91CAE
:101D9000C8B242465146FFF747FF691CC8B24A46DF
:101DA0005146FFF741FF2BE00B2251462846FFF733
:101DB0005AFF0A2094FBF0F100FB1140C7B20A2041
:101DC00094FBF0F00A2190FBF1F201FB120000F00D
:101DD000FF08642094FBF0F000F0FF09E91CC8B292
:101DE0003A465146FFF720FFA91CC8B24246514669
:101DF000FFF71AFF691CC8B24A465146FFF714FFA5
:101E0000BDE8F0872DE9F05F05468B46164634465F
:101E1000002C00DA64424FF47A7094FBF0F0C7B201
:101E20004FF47A7094FBF0F100FB1140642190FBB9
:101E3000F1F000F0FF08642094FBF0F100FB11408A
:101E40000A2190FBF1F000F0FF090A2094FBF0F169
:101E500000FB114000F0FF0A3A4659462846FFF7BA
:101E6000E3FE691CC8B242465946FFF7DDFEA91CD5
:101E7000C8B24A465946FFF7D7FEE91CC8B25246D7
:101E80005946FFF7D1FEBDE8F09F2DE9F05F05460A
:101E90000E46144642F21070B4FBF0F0C7B242F2A4
:101EA0001070B4FBF0F100FB11404FF47A71B0FBFD
:101EB000F1F000F0FF080846B4FBF0F100FB114020
:101EC0006421B0FBF1F000F0FF096420B4FBF0F1F5
:101ED00000FB11400A21B0FBF1FA0A20B4FBF0F13B
:101EE00000FB114B3A4631462846FFF79DFE691C20
:101EF000C8B242463146FFF797FEA91CC8B24A460F
:101F00003146FFF791FEE91CC8B252463146FFF751
:101F10008BFE291DC8B25A463146FFF785FEBDE843
:101F2000F09F08B501210920FEF720FE0121444859
:101F3000FEF731FC4FF42040ADF8000010208DF882
:101F4000030003208DF8020069463E48FEF752FB6D
:101F50004FF420413B48FEF7FAFB4FF44870FFF77F
:101F6000C0F80021AE20FFF7F0FA00210846FFF785
:101F7000ECFA00211020FFF7E8FA00214020FFF7DB
:101F8000E4FA0021B020FFF7E0FA00218120FFF7FA
:101F9000DCFA0021FF20FFF7D8FA0021A120FFF78B
:101FA000D4FA0021A620FFF7D0FA0021A820FFF7DD
:101FB000CCFA00213F20FFF7C8FA0021C820FFF724
:101FC000C4FA0021D320FFF7C0FA00210846FFF72A
:101FD000BCFA0021D520FFF7B8FA00218020FFF7D6
:101FE000B4FA0021D820FFF7B0FA00210520FFF74E
:101FF000ACFA0021D920FFF7A8FA0021F120FFF761
:10200000A4FA0021DA20FFF7A0FA00211220FFF73E
:102010009CFA0021DB20FFF798FA00213020FFF71F
:1020200094FA00218D20FFF790FA00211420FFF789
:102030008CFA0021AF20FFF788FA08BD683100084C
:1020400000023000000C014010B56248006820F02A
:102050000F00604908600846006840F0030008600F
:1020600000205D4908601420FFF73BF801205B4920
:10207000C1F880011E20FFF710F810BD10B5002434
:102080005448006820F00F00524908600846006874
:1020900040F00800086004E0601CC4B20120FEF7B4
:1020A000FCFF4D488038006808B1642CF4DB642CD8
:1020B00001DB012010BD002404E0601CC4B201203B
:1020C000FEF7EBFF44488038006808B9642CF4DB65
:1020D000642C01DB0120EDE70020EBE710B50024C4
:1020E00004E0601CC4B20120FEF7D7FF3A488038F4
:1020F000006808B1642CF4DB002404E0601CC4B266
:102100000120FEF7CAFF34488038006808B9642C03
:10211000F4DB2820FEF7C1FF2F488038006808B1A3
:10212000012010BD0020FCE770B50024002506E06A
:102130006006040EFFF7D2FF0443681CC5B2082DE9
:10214000F6DB204670BD7CB505460E46FFF77CFFEA
:10215000FFF794FFF8B9002405E0FFF7E5FF0DF85D
:102160000400601CC4B2052CF7DB9DF800009DF84C
:10217000011008449DF8021008449DF8031008441B
:102180009DF80410884208D19DF8000030709DF839
:102190000200287001E001207CBD0020FCE708B5AA
:1021A00001210420FEF7E2FC0120ADF80000102020
:1021B0008DF8030003208DF8020069460548FEF7FC
:1021C00019FA01210348FEF7C2FAFFF73DFFFFF7B6
:1021D00055FF08BD00080140800121420000214256
:1021E0002DE9FE4F804681EA0300C00F0C460090A7
:1021F00021F0004123F00045B8EB0200A94105D2CF
:102200004046214690461C460B46024623F00040BD
:10221000104347D0270DC7F30A00C3F30A510290B9
:10222000401A019040286BDAC3F3130040F4801B7E
:102230000098924620B10023D2EB030A63EB0B0B0C
:1022400001985946C0F14002504600F098F9064600
:102250000D4650465946019A00F0B0F910EB0800BF
:102260006141002487EA115284EAE7731A4340D09F
:10227000009A62B3019A012A4FEA075215DC001B4B
:1022800061EB02014FF0004202EA0752CDE9004241
:10229000001C41F5801132462B4600F0B0F903B026
:1022A000BDE8F08F40462146F9E7001B61EB0201D3
:1022B000001C41F5801300185B412018A2F500179F
:1022C00047EB030140EAD570B6196D4111E06D0886
:1022D0004FEA360645EAC0754FEA0752001B61EB2C
:1022E0000201001C41F5801149084FEA3000001935
:1022F000514132462B4603B0BDE8F04F00F070B9B3
:102300000098012240000023D0EB020263EBE0734F
:10231000009821464FEAE074B8EB000061EB04013D
:10232000E9E783F000435BE781F0004158E72DE9DE
:10233000FE4F81EA030404F0004421F000410094C0
:102340004FF0000B23F0004350EA01045ED052EA44
:1023500003045BD0C3F30A54C1F30A552C44A4F21E
:10236000F3340194A0FB0254C1F3130141F4801132
:10237000C3F3130343F4801301FB024400FB034E39
:10238000840A970A44EA815447EA8357A4FB076802
:1023900002958D0A05FB07854FEA932C04FB0C542C
:1023A0002705029D4FEA065847EA1637B5EB0805A0
:1023B0006EEB070C870E920E47EA811742EA8312F2
:1023C000A7FB0201B6EB0B0164EB00042B0D43EA03
:1023D0000C335E1844EB1C50DA465146E7FB020111
:1023E000C5F313044FEA0B3343EA14534FEA0432A4
:1023F000019C43EA0603A4F10C040294009CCDE97D
:1024000000B400F0FCF803B0BDE8F08F00200146F6
:10241000F9E70EB5C10F80EAE0700844CA07002151
:1024200040F233438DE80E000A460B4600F0E7F811
:1024300003B000BD0EB540F2334102910021CDE959
:1024400000110A460B4600F0DAF803B000BD70B583
:10245000C1F30A5201F000450024C1F3130140F218
:10246000FF3341F480119A4201DA002070BD40F23E
:1024700033439A42A2F2334203DC524200F08EF818
:1024800000E090402C43F1D0404270BDC1F30A52AD
:1024900010B5C1F3130140F2FF3341F480119A42A9
:1024A00001DA002010BD40F233439A42A2F23342D7
:1024B00003DC524200F072F810BD904010BD0000E5
:1024C00030B5041E71F1000404DB4FF000444042BB
:1024D00064EB0101141E73F1000405DB1C464FF090
:1024E0000043524263EB04038B4208BF824230BD7B
:1024F00030B50B46014600202022012409E021FAD4
:1025000002F59D4205D303FA02F5491B04FA02F5D0
:102510002844151EA2F10102F1DC30BD2DE9F05F67
:102520000546002092469B46884606468146402442
:102530001BE0284641464746224600F02FF8534606
:102540005A46C01A914110D311461846224600F04F
:1025500016F82D1A67EB01084F462246012000218C
:1025600000F00DF817EB00094E41201EA4F1010404
:10257000DFDC484631462A464346BDE8F09F202A24
:1025800004DB203A00FA02F1002070479140C2F1CA
:10259000200320FA03F3194390407047202A04DBFC
:1025A000203A21FA02F00021704721FA02F3D040CC
:1025B000C2F120029140084319467047202A06DBE9
:1025C000CB17203A41FA02F043EAE07306E041FA01
:1025D00002F3D040C2F120029140084319467047EF
:1025E00010B5141E73F1000408DA401C41F100011B
:1025F00092185B411A4301D120F0010010BD2DE972
:10260000F04D92469B4611B1B1FA81F202E0B0FA68
:1026100080F220329046FFF7B2FF04460F4640EAB0
:102620000A0041EA0B0153465A46084313D01146AB
:1026300053EA010019D0C8F140025046FFF7AEFF3F
:1026400005460E46504659464246FFF798FF084356
:1026500005D0012004E020463946BDE8F08D002079
:10266000054346EAE0762C4337430A986305E40ABB
:10267000A0EB08000022FD0A44EA47540A3002D5C4
:1026800000200146E9E7010510196941DDE9084527
:1026900000196941BDE8F04DA2E72DE9F04D81EA4E
:1026A000030404F0004B21F0004514464FF0000AEB
:1026B00023F0004150EA050220D054EA01021DD067
:1026C000C5F30A570246C5F31303C1F31300C1F360
:1026D0000A5640F4801543F48013A7EB0608101B3C
:1026E000D64608F2FD3873EB050002D308F1010865
:1026F00001E092185B41B8F1000F03DA00200146B7
:10270000BDE8F08D00204FF48011064684460EE0AF
:10271000171B73EB050705D3121B63EB0503064379
:102720004CEA010C49084FEA300092185B4150EA2C
:102730000107EDD152EA030012D082EA040083EAD5
:102740000501084305D0101BAB4106D2012200232E
:1027500006E000224FF0004302E06FF00102531048
:102760001AEB06004CEB085110EB0A0041EB0B0191
:10277000BDE8F04DFFF734BFC1F30A52C1F31301B6
:1027800040F2FF3341F480119A4202DA0020014600
:10279000704740F233439A42A2F2334202DC524283
:1027A000FFF7FCBEFFF7EBBE30B5041E71F100046D
:1027B00004DB4FF00044404264EB0101141E73F14E
:1027C000000405DB1C464FF00043524263EB040358
:1027D000994208BF904230BD064C074D06E0E068C4
:1027E00040F0010394E8070098471034AC42F6D358
:1027F000FDF7A2FC80390008A039000870B58C18DC
:1028000010F8015B15F0070301D110F8013B2A1104
:1028100006D110F8012B03E010F8016B01F8016BF1
:102820005B1EF9D12B0705D40023521E0DD401F8ED
:10283000013BFAE710F8013BCB1A921C03E013F8B6
:10284000015B01F8015B521EF9D5A142D8D30020EB
:1028500070BD00007CB5044600201D4616460029C8
:102860000BD0491ECDE90041044B6A46294630464B
:1028700000F0D8F8009A002111707CBD5331000897
:1028800002E008C8121F08C1002AFAD17047704739
:10289000002001E001C1121F002AFBD17047000097
:1028A0002DE9FF5F82B00021DDE90430020DDDF883
:1028B00040B0034318D044F61050A2F2FF32424316
:1028C0001514119801281FD0A5EB0B00401C5FEADE
:1028D000000A4FF000064E4FDFF83891B0465046E0
:1028E00015D5CAF1000413E0119801244AA3012868
:1028F00001D16FEA0B010298119AC0E90031C0E9D9
:10290000024206B0BDE8F09FCBF10000DFE70446CD
:102910000021404A491842EB0450CDE9001012E072
:10292000E00707D032463B4640464946FFF7FFFCEA
:102930008046894632463B4610461946FFF7F7FC6B
:1029400006460F466410002CEAD1DDE90401DDE9FA
:102950000023BAF1000F06DAFFF7E9FC42464B46C6
:10296000FFF7E5FC05E0FFF798FE42464B46FFF710
:1029700094FE04460E460022284BFFF715FF03D8AD
:102980004FF0FF30014607E00022254B204631463C
:10299000FFF726FCFFF7F0FE102409E0002C0ADB0D
:1029A0000A220023FFF7BAFD039B30321A55641E3A
:1029B00050EA0102F2D1641C039AC4F111031444D9
:1029C000119A012A03D0012208430DD10AE00843DD
:1029D00004D000204FF0110B119072E7A3EB0B0510
:1029E0006D1E0DE05B4504DD4FF0000205F10105B1
:1029F00004E003DA4FF00002A5F10105002AECD053
:102A000002981199C0E90231C0E9004579E7000058
:102A1000000014400000F03F300000000000F043D0
:102A20000000E03F2DE9FF4F95B09B4689460646E2
:102A300000250FE2252877D100242746F84A0121F6
:102A4000059400E0044316F8013F203B01FA03F02F
:102A50001042F7D130782A2811D06FF02F03307848
:102A6000A0F13002092A16D8059A44F0020402EBBC
:102A7000820203EB42021044761C0590EFE759F8FE
:102A8000042B0592002A03DA504244F400540590C6
:102A900044F00204761C30782E2816D116F8010F67
:102AA00044F004042A280DD06FF02F023078A0F1F2
:102AB0003003092B09D807EB870302EB4303C71840
:102AC000761CF3E759F8047B761C30786C280FD01D
:102AD00006DC4C2817D068280DD06A2814D104E0F1
:102AE000742810D07A280FD10DE044F400140AE0C5
:102AF00044F4801401E044F440147278824202D11C
:102B000004F58014761C761C307866280BD013DC14
:102B1000582877D009DC002875D04528F6D04628FB
:102B2000F4D047281AD19DE118E0632835D06428F5
:102B300079D0652812D195E1702873D008DC672818
:102B4000F1D069286FD06E280DD06F2806D1B5E07E
:102B500073282CD0752875D0782874D05A461799C8
:102B600090476D1C75E1C4F30250022809D0032878
:102B70000DD0D9F8001004280DD00D6009F104091A
:102B800067E1D9F80010EA17C1E90052F6E7D9F871
:102B900000100D80F2E70D70F0E719F8041B8DF8B6
:102BA000001000208DF80100EA46012003E059F8EA
:102BB00004AB4FF0FF3061074FF0000102D40DE08D
:102BC00008F101018846B9420FDA8045F8DB1AF8AE
:102BD00008100029F4D108E008F10101884681427B
:102BE000FADB1AF808100029F6D105985B46A0EB2D
:102BF000080721463846179A00F094FA284400EB5B
:102C0000080507E04DE029E10DE01AF8010B5A46EE
:102C100017999047B8F10108F7D25B46214638462C
:102C2000179A13E142E00A220092C4F302524FF0D5
:102C3000000A022A08D059F804CB032A4FEAEC71A3
:102C40000AD00DE029E02AE009F1070121F007028E
:102C5000F2E802C1914609E00FFA8CFC4FEAEC71F0
:102C6000042A03D14FFA8CFC4FEAEC71002907DAF1
:102C70000A460021DCF1000C61EB02012D2202E08A
:102C8000220504D52B228DF80420012203E0E2075F
:102C900001D02022F7E7904659E00A2102E01022F5
:102CA0000DE010214FF0000A00910BE010224FF0D0
:102CB000000A44F004040827009203E008224FF0C1
:102CC000000A0092C4F30252022A05D059F804CB3C
:102CD0000021032A08D009E009F1070121F00702C9
:102CE000F2E802C1914605E01FFA8CFC042A01D1EA
:102CF0000CF0FF0C4FF00008220728D5702806D0F2
:102D0000009B83F0100353EA0A0305D00EE0402233
:102D10008DF80420012208E05CEA010206D030228E
:102D20008DF804208DF8050002229046009B83F068
:102D3000080353EA0A030AD15CEA010201D16207DF
:102D400005D530228DF804204FF001087F1E582849
:102D500004D034A003900EA802900DE036A0F9E74D
:102D600053466046009AFFF7D9FB84460398825C7D
:102D70000298401E029002705CEA0100F0D10298B5
:102D800006A9081A00F1200A600702D524F480344D
:102D900000E00127574502DDA7EB0A0000E0002014
:102DA00000EB0A01009005984144401A0590E003A9
:102DB00006D45B462146179A059800F0B3F90544FE
:102DC000002706E001A85A46C05D179990476D1C80
:102DD0007F1C4745F6DBE0030CD55B462146179A7E
:102DE000059800F09FF9054404E030205A461799F1
:102DF00090476D1C0099481E00900029F5DC08E002
:102E0000029802995A460078491C029117999047F6
:102E10006D1CBAF10001AAF1010AF1DC65E10000C4
:102E200009280100303132333435363738396162A0
:102E30006364656600000000303132333435363764
:102E400038394142434445460000000000F058F93B
:102E50000544761C307800287FF4ECAD19B0284684
:102E6000BDE8F08F620700D4062709F1070222F0BF
:102E7000070CFCE80223E14603F000485FEA080C77
:102E800002D00FF2702C0DE05FEA045C02D50FF265
:102E9000682C07E05FEAC47C02D00FF2602C01E0EE
:102EA000AFF2700C4FF0FF3823F00043CDF850C064
:102EB00065280CD006DC452809D046281DD04728B7
:102EC0003DD13DE0662818D067287ED138E000214A
:102ED000112F01DB112000E0781CCDE9000106A9CB
:102EE0000EA8FFF7DDFCDDE90F010E9A039100212A
:102EF000009207F1010A04914DE04FF00040009765
:102F0000CDE9011006A90EA8FFF7CAFCDDE90F0202
:102F100003920E9B11990022DDF80CA000930492FD
:102F200011B9791C00EB010AB7EB0A0004D4C0F117
:102F3000FF3007F1010A0490AAEB0700019044E07A
:102F4000012F00DA01270021112F01DD112000E0FF
:102F50003846CDE9000106A90EA8FFF7A1FCDDE97E
:102F60000F010E9A0391002104910092BA462107A5
:102F70000CD40399514500DA8A46BAF1010F05DDF8
:102F8000009AAAF10101515C302908D0B84202DA56
:102F900010F1040F06DA0121CDE9011015E0AAF1C4
:102FA0000101E9E7002805DC049901440491AAEB3A
:102FB000000102E0411C514500DD8A460499401A97
:102FC000401C01904FF000400290200704D401986B
:102FD000504501DBCDF8048000208DF84F000298A9
:102FE0000DF14F07B0F1004F25D02B200E90029825
:102FF0004FF0020800280CDA404202902D200E907B
:1030000007E00A210298FFF773FA3031029007F8BF
:10301000011DB8F10001A8F10108F2DC02980028B6
:10302000EFD1791E0E980870307800F0200040F043
:10303000450007F8020D12A8C01B00F107081498FC
:10304000007800B1012000EB0A01019801EBE0716A
:1030500005984144401A401E0590E00306D45B46A3
:103060002146179A059800F05DF8054414980078F9
:1030700018B15A46179990476D1CE00324D55B465A
:103080002146179A059800F04DF805441CE0049875
:10309000002807DBDDE90301884203DD0098405C7E
:1030A000179901E0179930205A469047049805F186
:1030B0000105401C04900198401E019004D12E206F
:1030C0005A46179990476D1CBAF10001AAF1010AFE
:1030D000DDDC05E017F8010B5A46179990476D1C87
:1030E000B8F10001A8F10108F4DC5B462146179A0B
:1030F0000598ABE62D0000002B000000200000002A
:103100002DE9F041044600251E461746880404D4E4
:1031100005E039462020B0476D1C641EF9D52846CD
:10312000BDE8F0812DE9F041044600251E46904699
:10313000C80301D5302700E02027880404D505E026
:1031400041463846B0476D1C641EF9D52846BDE897
:10315000F0814A68002A06D00A68531C0B60107080
:103160004868401E486070470000000000000000F2
:10317000002F000000000700070000147F147F14D8
:1031800000242A7F2A12006264081323003649555E
:10319000225000000503000000001C224100000036
:1031A00041221C000014083E08140008083E0808CC
:1031B000000000A060000008080808080000606027
:1031C0000000002010080402003E5149453E000066
:1031D000427F4000004261514946002141454B3148
:1031E000001814127F10002745454539003C4A4914
:1031F0004930000171090503003649494936000686
:103200004949291E000036360000000056360000ED
:103210000008142241000014141414140000412268
:10322000140800020151090600324959513E007C40
:103230001211127C007F49494936003E414141222A
:10324000007F4141221C007F49494941007F090913
:103250000901003E4149497A007F0808087F0000C3
:10326000417F4100002040413F01007F081422417E
:10327000007F40404040007F020C027F007F040836
:10328000107F003E4141413E007F09090906003E92
:103290004151215E007F09192946004649494931BB
:1032A0000001017F0101003F4040403F001F2040DE
:1032B000201F003F4038403F00631408146300079C
:1032C0000870080700615149454300007F414100F3
:1032D00000552A552A55000041417F000004020193
:1032E0000204004040404040000001020400002071
:1032F00054545478007F48444438003844444420AF
:1033000000384444487F00385454541800087E095B
:1033100001020018A4A4A47C007F08040478000023
:10332000447D4000004080847D00007F10284400E0
:103330000000417F4000007C04180478007C0804F1
:10334000047800384444443800FC2424241800182D
:10335000242418FC007C0804040800485454542019
:1033600000043F444020003C4040207C001C2040A2
:10337000201C003C4030403C004428102844001CE5
:10338000A0A0A07C004464544C44141414141414DD
:10339000000000000000000000000000000000002D
:1033A000000000F8000000000000003330000000C2
:1033B00000100C06100C06000000000000000000C9
:1033C00040C07840C0784000043F04043F0404003B
:1033D000007088FC08300000001820FF211E00004B
:1033E000F008F000E018000000211C031E211E0060
:1033F00000F00888700000001E21232419272110E6
:1034000010160E0000000000000000000000000088
:10341000000000E01804020000000007182040002F
:1034200000020418E000000000402018070000001F
:10343000404080F0804040000202010F0102020083
:10344000000000F0000000000101011F0101010067
:10345000000000000000000080B0700000000000CC
:103460000000000000000000000101010101010155
:1034700000000000000000000030300000000000EC
:1034800000000000806018040060180601000000C1
:1034900000E010080810E000000F102020100F00BE
:1034A000001010F8000000000020203F2020000045
:1034B000007008080888700000302824222130009D
:1034C00000300888884830000018202020110E00A5
:1034D0000000C02010F8000000070424243F24004E
:1034E00000F80888880808000019212020110E0023
:1034F00000E0108888180000000F112020110E0035
:1035000000380808C83808000000003F000000002C
:103510000070880808887000001C222121221C00ED
:1035200000E010080810E0000000312222110F0016
:10353000000000C0C00000000000003030000000AB
:10354000000000800000000000008060000000001B
:103550000000804020100800000102040810200034
:10356000404040404040400004040404040404007F
:103570000008102040800000002010080402010014
:10358000007048080808F000000000303601000014
:10359000C030C828E810E0000718272423140B00C7
:1035A0000000C038E0000000203C23020227382041
:1035B00008F8888888700000203F202020110E0025
:1035C000C03008080808380007182020201008001C
:1035D00008F808080810E000203F202020100F0005
:1035E00008F88888E8081000203F202023201800D1
:1035F00008F88888E8081000203F20000300000039
:10360000C03008080838000007182020221E0200D9
:1036100008F808000008F808203F210101213F2098
:10362000000808F8080800000020203F20200000C3
:1036300000000808F8080800C08080807F000000B3
:1036400008F888C028180800203F200126382000EC
:1036500008F8080000000000203F20202020300053
:1036600008F8F800F8F80800203F003F003F20006D
:1036700008F830C00008F808203F200007183F0075
:10368000E01008080810E0000F10202020100F00A4
:1036900008F808080808F000203F21010101000097
:1036A000E01008080810E0000F18242438504F00DC
:1036B00008F8888888887000203F2000030C30209C
:1036C00000708808080838000038202121221C00DA
:1036D000180808F8080818000000203F2000000023
:1036E00008F808000008F808001F202020201F000C
:1036F0000878880000C83808000007380E0100006C
:10370000F80800F80008F800033C0700073C030035
:10371000081868808068180820302C03032C30209B
:103720000838C800C83808000000203F200000000A
:1037300010080808C8380800203826212020180062
:10374000000000FE020202000000007F4040400036
:10375000000C30C000000000000000010638C0006E
:1037600000020202FE000000004040407F00000016
:10377000000004020202040000000000000000003B
:103780000000000000000000808080808080808039
:103790000002020400000000000000000000000021
:1037A00000008080808000000019242222223F2017
:1037B00008F8008080000000003F112020110E005A
:1037C0000000008080800000000E112020201100E9
:1037D000000000808088F800000E112020103F209B
:1037E0000000808080800000001F2222222213001F
:1037F000008080F0888888180020203F202000006A
:103800000000808080808000006B9494949360001E
:1038100008F8008080800000203F210000203F2029
:1038200000809898000000000020203F2020000029
:10383000000000809898000000C08080807F000019
:1038400008F8000080808000203F24022D302000F6
:10385000000808F8000000000020203F20200000A1
:103860008080808080808000203F20003F20003FBB
:103870008080008080800000203F210000203F20C9
:103880000000808080800000001F202020201F007A
:10389000808000808000000080FFA12020110E00A9
:1038A0000000008080808000000E112020A0FF809A
:1038B000808080008080800020203F212000010047
:1038C000000080808080800000332424242419009C
:1038D000008080E0808000000000001F20200000A9
:1038E0008080000000808000001F202020103F20EA
:1038F000808080000080808000010E30080601007A
:1039000080800080008080800F300C030C300F001E
:1039100000808000808080000020312E0E31200049
:10392000808080000080808080818E701806010079
:1039300000808080808080000021302C2221300097
:1039400000000000807C020200000000003F4040B8
:1039500000000000FF00000000000000FF00000069
:103960000002027C800000000040403F0000000098
:103970000006010102020404000000000000000033
:10398000A03900080000002070020000FC27000899
:10399000BC3A000870020020C8040000902800080B
:1039A0001184A24A04680901020304060708090CED
:1039B000691085020406081009109453321E325211
:1039C0001006157E4242427E4BFF49010214FF1849
:1039D0000B222AAAFFAAAAA280A2AA0803112A22BD
:1039E0000010148060080A6A8A8A9AAA8A8ACA0F12
:1039F00020C03DFE92929204011408101144442408
:103A000025140C04FF040C14252444443E2E0242C9
:103A10004ACA4A030B12420242080D14FF40504C9E
:103A20004340404F50505C40C2000B14322AA6A2C3
:103A3000622111098101000E124222130B42827E83
:103A400002020A122346162030AC6330080A10889E
:103A5000C8A8998E88A8C8885E200967221212809B
:103A600040300F05113F4040711D1060028CC52A87
:103A700092010912BF180A04047E01407E42427E70
:103A8000020C14427E4040493F091740080B104485
:103A900048507F40407F50484440212809FC24245E
:103AA00024FC2526240802110400101140308F80C8
:0C3AB000844C55252525554C8080800055
:0400000508000131BD
:00000001FF
